:100000000C942A000C943C000C943C000C943C0092
:100010000C943C000C943C000C943C000C943C0070
:100020000C943C000C943C000C943C000C946C0030
:100030000C943C000C943C000C943C000C943C0050
:100040000C943C000C943C000C943C000C943C0040
:100050000C943C0011241FBECFE5D4E0DEBFCDBF21
:1000600010E0A0E6B0E001C01D92A136B107E1F7B3
:100070000E9484000C9498000C9400008F9A97982A
:10008000089583B3886085BB089583B3877F85BB5C
:10009000089580B3806882BB089580B38F7782BB58
:1000A00008958F9A979808951AB81BB886E880BD6E
:1000B0008FE289B910BC88E98AB90895F8948F9ABB
:1000C00097981AB81BB886E880BD8FE289B910BC32
:1000D00088E98AB9789408951F920F920FB60F920B
:1000E00011248F938CB1813021F4809160008CB900
:1000F00005C08F3F19F480B38F7782BB8F910F902B
:100100000FBE0F901F90189581E080936000F894C7
:100110008F9A97981AB81BB886E880BD8FE289B984
:1001200010BC88E98AB9789480B3806882BBFFCF1D
:04013000F894FFCF71
:00000001FF
