:100000000C9472000C9493000C9493000C94930045
:100010000C9493000C9493000C9493000C94930014
:100020000C9493000C9493000C9493000C94930004
:100030000C9493000C9493000C9493000C949300F4
:100040000C9493000C9493000C9493000C949300E4
:100050000C9493000C9493000C9493000C949300D4
:100060000C9493000C94E1010C9493000C94930075
:100070000C9493000C9493000C9493000C949300B4
:100080000C9493000C9493000C9493000C949300A4
:100090000C9493000C9493000C9493000C94930094
:1000A0000C9493000C9493000C9493000C94930084
:1000B0000C9493000C9493000C9493000C94930074
:1000C0000C9493000C9493000C9493000C94930064
:1000D0000C9493000C9493000C9493000C94930054
:1000E0000C94930011241FBECFEFD1E2DEBFCDBF31
:1000F00000E00CBF12E0A0E0B2E0E6E3FAE000E0CE
:100100000BBF02C007900D92A232B107D9F712E0DF
:10011000A2E2B2E001C01D92A933B107E1F70E944B
:1001200005040C9419050C9400008AEF90E0FC0182
:100130003197F1F74098419840E348B9429A22EE4E
:1001400034E0F9013197F1F74298FC013197F1F76A
:100150004098419848B9429AF9013197F1F742988D
:10016000FC013197F1F74098419848B9429AF9015A
:100170003197F1F742980197F1F74098419880E262
:1001800088B9429AC9010197F1F74298089598B148
:100190009F7098B928B1982F907F922B98B940986A
:1001A0004198429A22EE34E0F9013197F1F74298F2
:1001B00098B19F7098B998B18295807F982B98B923
:1001C00040984198429AC9010197F1F742980895E1
:1001D0008AEF90E00197F1F788E20E94C70081E082
:1001E0000E94C70086E00E94C7008EE00E94C70000
:1001F00080E80E94C700089598B19F7098B928B10F
:10020000982F907F922B98B9409A4198429A22EE6B
:1002100034E0F9013197F1F7429898B19F7098B99D
:1002200098B18295807F982B98B9409A4198429ACC
:10023000C9010197F1F74298089580E80E94C7002C
:100240000895CF93DF93EC0103C00E94FC00219638
:1002500088818823D1F7DF91CF910895823069F0AA
:10026000833018F48130A9F405C0833049F084301C
:1002700081F40BC0862F815805C0862F815402C09F
:10028000862F8D560E94C7000895862F8D520E949A
:10029000C70008950F931F93CF93DF938A01E9015D
:1002A000882311F0662319F40E941D0102C00E94E8
:1002B0002E01C530D10571F4C80160E177E20E94DA
:1002C0000505CB01C09690932902809328020E94D5
:1002D000FC0005C0C430D10511F080E016C0C80193
:1002E00068EE73E00E940505CB0160932B029093AA
:1002F0002C026AE070E00E940505C09690933702D8
:10030000809336020E94FC0081E0C330D10521F0C9
:10031000813011F080E016C0C80164E670E00E94F0
:100320000505CB0160932B0290932C026AE070E0EC
:100330000E940505C09690933302809332020E947A
:10034000FC0081E0C230D10521F0813011F080E065
:1003500016C0C8016AE070E00E940505CB016093F9
:100360002B0290932C026AE070E00E940505C09673
:100370009093300280932F020E94FC0081E0C130F4
:10038000D10511F0813061F4C8016AE070E00E948B
:100390000505C09690933502809334020E94FC00BC
:1003A00026971CF085E40E94FC00DF91CF911F91FD
:1003B0000F91089587B1876F87B988B1807888B920
:1003C00008951F920F920FB60F9211248F93809170
:1003D000C60080933102813019F48FEF8093C600FC
:1003E0008F910F900FBE0F901F90189543B14072E0
:1003F00081E061E050E023E030E00E944A01F6CF66
:1004000081E090E061E070E043E050E00E945C0435
:1004100081E090E065E070E042E050E00E945C0422
:1004200081E090E069E070E041E050E00E945C040F
:100430000895CF92DF92EF92FF920F931F93CF9385
:10044000DF9380E593EC0197F1F783E080932A0234
:1004500010E023E0C22EDD24D39490E3E92E95E74B
:10046000F92EC9E1D0E002E083E090E00E943F0471
:100470008093230282E090E00E943F048093240254
:1004800081E090E00E943F04809325028BE090E0A1
:100490000E943F048093260286E090E00E943F0481
:1004A000809327020E94000210C00E949E040E94B6
:1004B00091048BE090E00E943F048093260286E046
:1004C00090E00E943F0480932702809126028338A7
:1004D00060F780912702803F40F30E94950480914D
:1004E0001E02181709F0C4C083E080932A0283E03B
:1004F000F82E01E0C0E3D5E712E083E090E00E942F
:100500003F048093230282E090E00E943F048093A6
:10051000240281E090E00E943F04809325028BE05A
:1005200090E00E943F048093260210C00E949E0427
:100530000E9491048BE090E00E943F048093260289
:1005400086E090E00E943F0480932702809126027B
:10055000833860F780912702803F40F30E94950422
:100560008091240290911D02891768F42091230242
:10057000921760F580912502981740F50E94990422
:1005800084E690E02DC0981708F0B7CF8091230241
:10059000981768F580912502981748F580912A02EE
:1005A000833059F00E949E04DF91CF911F910F91EB
:1005B000FF90EF90DF90CF9008950E94A70484E60B
:1005C00090E064E670E00E94860497CF2917C0F49B
:1005D000809125029817A0F40E94990482E390E08C
:1005E00064E670E00E94860410932A0286CF809110
:1005F0002302891790F480912502981770F42AC07D
:10060000921700F5809125028917E0F40E94990461
:1006100084E690E062E370E0E5CF809123029817D2
:1006200008F06BCF80912502891708F066CF0E94F1
:10063000A70484E690E064E670E00E948604F092ED
:100640002A025BCF291708F058CF8091250289171D
:1006500008F053CF0E94A20484E690E064E670E0C4
:100660000E94860400932A02CE010197F1F745CF3C
:100670008091240290911D02891778F42091230221
:10068000921708F050C080912502981708F04BC0CF
:100690000E94990484E690E050C0981708F0E4CED8
:1006A00080912302981708F04FC080912502981777
:1006B00008F04AC080912A02833009F445C00E94A4
:1006C0009E0480E29EE4FE013197F1F70197D9F78D
:1006D0000E94D404892BF9F41093C60082E090E0C4
:1006E00061E070E04AE050E00E945C048AE090E043
:1006F0000E943F04449764F40E94910480E29EE4C7
:10070000FE013197F1F70197D9F70E94950407C0D0
:1007100080E092E002C08DE092E00E9421010E9400
:10072000C0041F5F3FC02917F0F48091250298177D
:10073000D0F40E94990482E390E064E670E00E94A5
:10074000860400932A0290CE809123028917C0F478
:10075000809125029817A0F40E94A20484E690E0FC
:1007600064E670E030C0921700F580912502891789
:10077000E0F40E94990484E690E062E370E0DFCF49
:1007800080912302981708F06FCE80912502891777
:1007900008F06ACE0E94A70484E690E064E670E068
:1007A0000E948604C0922A025FCE291708F05CCE10
:1007B00080912502891708F057CE0E94A20488E78D
:1007C00090E068E770E00E948604D0922A02C70198
:1007D0000197F1F749CE87B1876F87B988B18078E3
:1007E00088B90E9410040E9472040E94E7040E94CB
:1007F00083040895F8940E94EB030E9432040E943F
:10080000F5040E941704789408950E94FA030E9448
:1008100095000E94E8000E94190280E090E008958F
:1008200010BA11BA10920701109208010895E1E27E
:10083000F1E010829FEF9093250181E080932401E5
:10084000109229019093280110922B0190932A0174
:1008500010922D0190932C0189EA809320018BE066
:1008600080830895EAE7F0E0108210927B0080E236
:1008700080937C0080E880BF86E880830895982F6D
:10088000883018F088E080937B0097709062909396
:100890007C0080917A00806480937A0080917A0055
:1008A00084FFFCCF8091790090917A0090619093C1
:1008B0007A0010927B0008950F931F93182F062F34
:1008C000842F0E943F04482F80933802812F90E0AC
:1008D000602F70E050E023E030E00E944A011F9159
:1008E0000F91089581B18F6081B982B1807F82B903
:1008F000EAE0F1E0808188618083EBE0F1E08081D3
:100900008861808308953B9A4398089580932801D5
:1009100060932A01089592B1907F8F70892B82B9DC
:10092000089586B1886088B9089586B1877F88B9AF
:10093000089582B1807F866082B9089582B1807FF8
:1009400082B9089582B1807F856082B9089582B1AD
:10095000807F8A6082B9089582B1807F8A6082B97F
:1009600084E68093280180932A0182E090E00E942F
:100970003F0420911F0230E028173907B4F308958F
:1009800082B1807F856082B984E68093280180935C
:100990002A0182E090E00E943F0420911F0230E093
:1009A00028173907B4F3089580E090E020E030E0A4
:1009B0001D9B02C02F5F3F4F019643E0883E940786
:1009C000B9F780E0295532400CF081E00895259870
:1009D00008958AE090E00E943F0420E09091200278
:1009E000981708F021E0822F0895E1ECF0E01082E2
:1009F0001092C00086E08093C2008FE58093C4000F
:100A00001092C50088E980830895AA1BBB1B51E1A1
:100A100007C0AA1FBB1FA617B70710F0A61BB70B6E
:100A2000881F991F5A95A9F780959095BC01CD0113
:060A30000895F894FFCFC9
:100A36004E6F204C6967687473204F6E004D6F745B
:100A4600696F6E20446574656374656400280328C5
:020A560010008E
:00000001FF
